{
  "contractName": "RNS",
  "abi": [
    {
      "inputs": [],
      "payable": false,
      "stateMutability": "nonpayable",
      "type": "constructor"
    },
    {
      "anonymous": false,
      "inputs": [
        {
          "indexed": true,
          "name": "node",
          "type": "bytes32"
        },
        {
          "indexed": true,
          "name": "label",
          "type": "bytes32"
        },
        {
          "indexed": false,
          "name": "ownerAddress",
          "type": "address"
        }
      ],
      "name": "NewOwner",
      "type": "event"
    },
    {
      "anonymous": false,
      "inputs": [
        {
          "indexed": true,
          "name": "node",
          "type": "bytes32"
        },
        {
          "indexed": false,
          "name": "ownerAddress",
          "type": "address"
        }
      ],
      "name": "Transfer",
      "type": "event"
    },
    {
      "anonymous": false,
      "inputs": [
        {
          "indexed": true,
          "name": "node",
          "type": "bytes32"
        },
        {
          "indexed": false,
          "name": "resolverAddress",
          "type": "address"
        }
      ],
      "name": "NewResolver",
      "type": "event"
    },
    {
      "anonymous": false,
      "inputs": [
        {
          "indexed": true,
          "name": "node",
          "type": "bytes32"
        },
        {
          "indexed": false,
          "name": "ttlValue",
          "type": "uint64"
        }
      ],
      "name": "NewTTL",
      "type": "event"
    },
    {
      "constant": true,
      "inputs": [
        {
          "name": "node",
          "type": "bytes32"
        }
      ],
      "name": "owner",
      "outputs": [
        {
          "name": "",
          "type": "address"
        }
      ],
      "payable": false,
      "stateMutability": "view",
      "type": "function"
    },
    {
      "constant": true,
      "inputs": [
        {
          "name": "node",
          "type": "bytes32"
        }
      ],
      "name": "resolver",
      "outputs": [
        {
          "name": "",
          "type": "address"
        }
      ],
      "payable": false,
      "stateMutability": "view",
      "type": "function"
    },
    {
      "constant": true,
      "inputs": [
        {
          "name": "node",
          "type": "bytes32"
        }
      ],
      "name": "ttl",
      "outputs": [
        {
          "name": "",
          "type": "uint64"
        }
      ],
      "payable": false,
      "stateMutability": "view",
      "type": "function"
    },
    {
      "constant": false,
      "inputs": [
        {
          "name": "node",
          "type": "bytes32"
        },
        {
          "name": "ownerAddress",
          "type": "address"
        }
      ],
      "name": "setOwner",
      "outputs": [],
      "payable": false,
      "stateMutability": "nonpayable",
      "type": "function"
    },
    {
      "constant": false,
      "inputs": [
        {
          "name": "node",
          "type": "bytes32"
        },
        {
          "name": "label",
          "type": "bytes32"
        },
        {
          "name": "ownerAddress",
          "type": "address"
        }
      ],
      "name": "setSubnodeOwner",
      "outputs": [],
      "payable": false,
      "stateMutability": "nonpayable",
      "type": "function"
    },
    {
      "constant": false,
      "inputs": [
        {
          "name": "node",
          "type": "bytes32"
        },
        {
          "name": "resolverAddress",
          "type": "address"
        }
      ],
      "name": "setResolver",
      "outputs": [],
      "payable": false,
      "stateMutability": "nonpayable",
      "type": "function"
    },
    {
      "constant": false,
      "inputs": [
        {
          "name": "node",
          "type": "bytes32"
        },
        {
          "name": "ttlValue",
          "type": "uint64"
        }
      ],
      "name": "setTTL",
      "outputs": [],
      "payable": false,
      "stateMutability": "nonpayable",
      "type": "function"
    },
    {
      "constant": false,
      "inputs": [
        {
          "name": "_resolver",
          "type": "address"
        }
      ],
      "name": "setDefaultResolver",
      "outputs": [],
      "payable": false,
      "stateMutability": "nonpayable",
      "type": "function"
    }
  ],
  "bytecode": "0x608060405234801561001057600080fd5b50336000808060001b815260200190815260200160002060000160006101000a81548173ffffffffffffffffffffffffffffffffffffffff021916908373ffffffffffffffffffffffffffffffffffffffff160217905550610abf806100776000396000f3fe608060405234801561001057600080fd5b50600436106100885760003560e01c806316a25cbd1161005b57806316a25cbd146102035780631896f70a146102595780635b0fc9c3146102a7578063c66485b2146102f557610088565b80630178b8bf1461008d57806302571be3146100fb57806306ab59231461016957806314ab9038146101c1575b600080fd5b6100b9600480360360208110156100a357600080fd5b8101908080359060200190929190505050610339565b604051808273ffffffffffffffffffffffffffffffffffffffff1673ffffffffffffffffffffffffffffffffffffffff16815260200191505060405180910390f35b6101276004803603602081101561011157600080fd5b8101908080359060200190929190505050610378565b604051808273ffffffffffffffffffffffffffffffffffffffff1673ffffffffffffffffffffffffffffffffffffffff16815260200191505060405180910390f35b6101bf6004803603606081101561017f57600080fd5b810190808035906020019092919080359060200190929190803573ffffffffffffffffffffffffffffffffffffffff1690602001909291905050506103b7565b005b610201600480360360408110156101d757600080fd5b8101908080359060200190929190803567ffffffffffffffff16906020019092919050505061063a565b005b61022f6004803603602081101561021957600080fd5b8101908080359060200190929190505050610735565b604051808267ffffffffffffffff1667ffffffffffffffff16815260200191505060405180910390f35b6102a56004803603604081101561026f57600080fd5b8101908080359060200190929190803573ffffffffffffffffffffffffffffffffffffffff169060200190929190505050610768565b005b6102f3600480360360408110156102bd57600080fd5b8101908080359060200190929190803573ffffffffffffffffffffffffffffffffffffffff169060200190929190505050610893565b005b6103376004803603602081101561030b57600080fd5b81019080803573ffffffffffffffffffffffffffffffffffffffff1690602001909291905050506109be565b005b600080600083815260200190815260200160002060010160009054906101000a900473ffffffffffffffffffffffffffffffffffffffff169050919050565b600080600083815260200190815260200160002060000160009054906101000a900473ffffffffffffffffffffffffffffffffffffffff169050919050565b823373ffffffffffffffffffffffffffffffffffffffff1660008083815260200190815260200160002060000160009054906101000a900473ffffffffffffffffffffffffffffffffffffffff1673ffffffffffffffffffffffffffffffffffffffff161461042557600080fd5b60008484604051602001808381526020018281526020019250505060405160208183030381529060405280519060200120905083857fce0457fe73731f824cc272376169235128c118b49d344817417c6d108d155e8285604051808273ffffffffffffffffffffffffffffffffffffffff1673ffffffffffffffffffffffffffffffffffffffff16815260200191505060405180910390a38260008083815260200190815260200160002060000160006101000a81548173ffffffffffffffffffffffffffffffffffffffff021916908373ffffffffffffffffffffffffffffffffffffffff160217905550807f335721b01866dc23fbee8b6b2c7b1e14d6f05c28cd35a2c934239f94095602a060008088815260200190815260200160002060010160009054906101000a900473ffffffffffffffffffffffffffffffffffffffff16604051808273ffffffffffffffffffffffffffffffffffffffff1673ffffffffffffffffffffffffffffffffffffffff16815260200191505060405180910390a260008086815260200190815260200160002060010160009054906101000a900473ffffffffffffffffffffffffffffffffffffffff1660008083815260200190815260200160002060010160006101000a81548173ffffffffffffffffffffffffffffffffffffffff021916908373ffffffffffffffffffffffffffffffffffffffff1602179055505050505050565b813373ffffffffffffffffffffffffffffffffffffffff1660008083815260200190815260200160002060000160009054906101000a900473ffffffffffffffffffffffffffffffffffffffff1673ffffffffffffffffffffffffffffffffffffffff16146106a857600080fd5b827f1d4f9bbfc9cab89d66e1a1562f2233ccbf1308cb4f63de2ead5787adddb8fa6883604051808267ffffffffffffffff1667ffffffffffffffff16815260200191505060405180910390a28160008085815260200190815260200160002060010160146101000a81548167ffffffffffffffff021916908367ffffffffffffffff160217905550505050565b600080600083815260200190815260200160002060010160149054906101000a900467ffffffffffffffff169050919050565b813373ffffffffffffffffffffffffffffffffffffffff1660008083815260200190815260200160002060000160009054906101000a900473ffffffffffffffffffffffffffffffffffffffff1673ffffffffffffffffffffffffffffffffffffffff16146107d657600080fd5b827f335721b01866dc23fbee8b6b2c7b1e14d6f05c28cd35a2c934239f94095602a083604051808273ffffffffffffffffffffffffffffffffffffffff1673ffffffffffffffffffffffffffffffffffffffff16815260200191505060405180910390a28160008085815260200190815260200160002060010160006101000a81548173ffffffffffffffffffffffffffffffffffffffff021916908373ffffffffffffffffffffffffffffffffffffffff160217905550505050565b813373ffffffffffffffffffffffffffffffffffffffff1660008083815260200190815260200160002060000160009054906101000a900473ffffffffffffffffffffffffffffffffffffffff1673ffffffffffffffffffffffffffffffffffffffff161461090157600080fd5b827fd4735d920b0f87494915f556dd9b54c8f309026070caea5c737245152564d26683604051808273ffffffffffffffffffffffffffffffffffffffff1673ffffffffffffffffffffffffffffffffffffffff16815260200191505060405180910390a28160008085815260200190815260200160002060000160006101000a81548173ffffffffffffffffffffffffffffffffffffffff021916908373ffffffffffffffffffffffffffffffffffffffff160217905550505050565b6000801b3373ffffffffffffffffffffffffffffffffffffffff1660008083815260200190815260200160002060000160009054906101000a900473ffffffffffffffffffffffffffffffffffffffff1673ffffffffffffffffffffffffffffffffffffffff1614610a2f57600080fd5b816000808060001b815260200190815260200160002060010160006101000a81548173ffffffffffffffffffffffffffffffffffffffff021916908373ffffffffffffffffffffffffffffffffffffffff160217905550505056fea265627a7a72305820cc667ee3e19935d6def61559f398808befd790b5a882263e39760acca15e031764736f6c634300050a0032",
  "source": "pragma solidity ^0.5.2;\n\nimport \"./AbstractRNS.sol\";\n\n/**\n * The RNS registry contract.\n */\ncontract RNS is AbstractRNS {\n    struct Record {\n        address owner;\n        address resolver;\n        uint64 ttl;\n    }\n\n    mapping(bytes32=>Record) records;\n\n    // Permits modifications only by the owner of the specified node.\n    modifier only_owner(bytes32 node) {\n        require(records[node].owner == msg.sender);\n        _;\n    }\n\n    /**\n     * Constructs a new RNS registrar.\n     */\n    constructor() public {\n        records[bytes32(0)].owner = msg.sender;\n    }\n\n    /**\n     * Returns the address that owns the specified node.\n     */\n    function owner(bytes32 node) public view returns (address) {\n        return records[node].owner;\n    }\n\n    /**\n     * Returns the address of the resolver for the specified node.\n     */\n    function resolver(bytes32 node) public view returns (address) {\n        return records[node].resolver;\n    }\n\n    /**\n     * Returns the TTL of a node, and any records associated with it.\n     */\n    function ttl(bytes32 node) public view returns (uint64) {\n        return records[node].ttl;\n    }\n\n    /**\n     * Transfers ownership of a node to a new address. May only be called by the current\n     * owner of the node.\n     * @param node The node to transfer ownership of.\n     * @param ownerAddress The address of the new owner.\n     */\n    function setOwner(bytes32 node, address ownerAddress) public only_owner(node) {\n        emit Transfer(node, ownerAddress);\n        records[node].owner = ownerAddress;\n    }\n\n    /**\n     * Transfers ownership of a subnode keccak256(node, label) to a new address. May only be\n     * called by the owner of the parent node.\n     * @param node The parent node.\n     * @param label The hash of the label specifying the subnode.\n     * @param ownerAddress The address of the new owner.\n     */\n    function setSubnodeOwner(bytes32 node, bytes32 label, address ownerAddress) public only_owner(node) {\n        bytes32 subnode = keccak256(abi.encodePacked(node, label));\n        emit NewOwner(node, label, ownerAddress);\n        records[subnode].owner = ownerAddress;\n\n        emit NewResolver(subnode, records[node].resolver);\n        records[subnode].resolver = records[node].resolver;\n    }\n\n    /**\n     * Sets the resolver address for the specified node.\n     * @param node The node to update.\n     * @param resolverAddress The address of the resolver.\n     */\n    function setResolver(bytes32 node, address resolverAddress) public only_owner(node) {\n        emit NewResolver(node, resolverAddress);\n        records[node].resolver = resolverAddress;\n    }\n\n    /**\n     * Sets the TTL for the specified node.\n     * @param node The node to update.\n     * @param ttlValue The TTL in seconds.\n     */\n    function setTTL(bytes32 node, uint64 ttlValue) public only_owner(node) {\n        emit NewTTL(node, ttlValue);\n        records[node].ttl = ttlValue;\n    }\n\n    /**\n     * Sets the default resolver for new nodes\n     * @param _resolver The address of the new defaultResolver\n     */\n    function setDefaultResolver(address _resolver) public only_owner(0) {\n        records[bytes32(0)].resolver = _resolver;\n    }\n}\n",
  "sourcePath": "/Users/Fede/Downloads/rns-artifacts-master/contracts/registry/RNS.sol",
  "compiler": {
    "name": "solc",
    "version": "0.5.10+commit.5a6ea5b1.Emscripten.clang"
  },
  "schemaVersion": "3.0.16",
  "updatedAt": "2019-11-06T18:37:56.449Z",
  "devdoc": {
    "methods": {
      "setDefaultResolver(address)": {
        "params": {
          "_resolver": "The address of the new defaultResolver"
        }
      },
      "setOwner(bytes32,address)": {
        "params": {
          "node": "The node to transfer ownership of.",
          "ownerAddress": "The address of the new owner."
        }
      },
      "setResolver(bytes32,address)": {
        "params": {
          "node": "The node to update.",
          "resolverAddress": "The address of the resolver."
        }
      },
      "setSubnodeOwner(bytes32,bytes32,address)": {
        "params": {
          "label": "The hash of the label specifying the subnode.",
          "node": "The parent node.",
          "ownerAddress": "The address of the new owner."
        }
      },
      "setTTL(bytes32,uint64)": {
        "params": {
          "node": "The node to update.",
          "ttlValue": "The TTL in seconds."
        }
      }
    }
  },
  "userdoc": {
    "methods": {
      "constructor": "Constructs a new RNS registrar.",
      "owner(bytes32)": {
        "notice": "Returns the address that owns the specified node."
      },
      "resolver(bytes32)": {
        "notice": "Returns the address of the resolver for the specified node."
      },
      "setDefaultResolver(address)": {
        "notice": "Sets the default resolver for new nodes"
      },
      "setOwner(bytes32,address)": {
        "notice": "Transfers ownership of a node to a new address. May only be called by the current owner of the node."
      },
      "setResolver(bytes32,address)": {
        "notice": "Sets the resolver address for the specified node."
      },
      "setSubnodeOwner(bytes32,bytes32,address)": {
        "notice": "Transfers ownership of a subnode keccak256(node, label) to a new address. May only be called by the owner of the parent node."
      },
      "setTTL(bytes32,uint64)": {
        "notice": "Sets the TTL for the specified node."
      },
      "ttl(bytes32)": {
        "notice": "Returns the TTL of a node, and any records associated with it."
      }
    },
    "notice": "The RNS registry contract."
  }
}